:020000040800F2
:100000005009002001010008491500086D11000881
:1000100045150008390C00086722000800000000A0
:10002000000000000000000000000000D11C0008DB
:10003000090E000800000000551C0008411F0008C0
:100040001701000817010008170100081701000830
:100050001701000817010008170100081701000820
:100060001701000817010008170100081701000810
:100070001701000817010008170100081701000800
:1000800017010008170100081701000817010008F0
:1000900017010008170100081701000817010008E0
:1000A00017010008170100081701000817010008D0
:1000B000811F00089D1F0008BD1F000817010008D0
:1000C00017010008170100081701000817010008B0
:1000D0001701000817010008B9200008E9200008EE
:1000E000170100081701000817010008DFF80CD0FD
:1000F00000F004FC004800475D4B00085009002058
:1001000005480047FEE7FEE7FEE7FEE7FEE7FEE7FD
:10011000FEE7FEE7FEE7FEE7ED00000840EA010328
:100120009B0703D009E008C9121F08C0042AFAD2AD
:1001300003E011F8013B00F8013B521EF9D2704771
:10014000D2B201E000F8012B491EFBD27047002219
:10015000F6E710B513460A4604461946FFF7F0FFC6
:10016000204610BDF0B480EA0102D40F4200B2EB89
:10017000410F02D20246084611464A0042D0C30D42
:10018000DDB2C1F3C752AD1A202D35DAC1F3160125
:1001900041F4000204B15242C5F1200602FA06F110
:1001A0002A411044B3EBD05F23D0C4B1012DA0EBA2
:1001B000C35009DCF0BC4FF0004202EAC352DBB28C
:1001C00000F5000000F0CEBA400000F1807000EBB6
:1001D000C350A0F1807040EAD170490009E049089D
:1001E00041EAC071A0EBC35000F50000400800EBED
:1001F000C350F0BC00F0ADBA6142012202EB4101F4
:10020000001BF6E7F0BC704781F00041AAE780F0E0
:100210000040A7E780EA010210B502F00043400069
:1002200022D04A001FD0010E01EB1261C0F356002C
:10023000C2F3560240F4000042F40002A0FB022088
:1002400000047F39140400D0401C50EA124001D44D
:100250004000491EC2B20C0604EBD010401C4008FE
:10026000802A02D003E0002010BD20F00100002908
:1002700000DA0020184310BD30B480EA010202F019
:10028000004530F0004221F0004013D090B1C30D82
:10029000D40DC2F31601C0F31600E41A41F40001B4
:1002A00040F400027D34914201D3641C00E0490017
:1002B000002C02DA30BC002070474FF4000000230D
:1002C000914201D3891A034340084FEA4101F7D113
:1002D00051B1914202D14FF0004105E002D24FF0FE
:1002E000010101E06FF0010103EBC450284430BC70
:1002F00000F02FBA2DE9FE4F804681EA0300C00FBF
:100300000C46009021F0004123F00045B8EB0200BC
:10031000A94105D24046214690461C460B4602465E
:1003200023F00040104347D0270DC7F30A00C3F362
:100330000A510290401A019040286BDAC3F313006F
:1003400040F4801B0098924620B10023D2EB030AB0
:1003500063EB0B0B01985946C0F14002504600F088
:10036000D7F906460D4650465946019A00F0DFF986
:1003700010EB08006141002487EA115284EAE77318
:100380001A4340D0009A62B3019A012A4FEA0752F9
:1003900015DC001B61EB02014FF0004202EA07523C
:1003A000CDE90042001C41F5801132462B4600F099
:1003B00016FA03B0BDE8F08F40462146F9E7001B6E
:1003C00061EB0201001C41F5801300185B4120180D
:1003D000A2F5001747EB030140EAD570B6196D414D
:1003E00011E06D084FEA360645EAC0754FEA07523C
:1003F000001B61EB0201001C41F5801149084FEA26
:1004000030000019514132462B4603B0BDE8F04F91
:1004100000F0D6B90098012240000023D0EB020280
:1004200063EBE073009821464FEAE074B8EB0000FC
:1004300061EB0401E9E783F000435BE781F00041F1
:1004400058E72DE9FE4F81EA030404F0004421F04F
:10045000004100944FF0000B23F0004350EA0104E8
:100460005ED052EA03045BD0C3F30A54C1F30A55C9
:100470002C44A4F2F3340194A0FB0254C1F3130101
:1004800041F48011C3F3130343F4801301FB0244CE
:1004900000FB034E840A970A44EA815447EA8357D3
:1004A000A4FB076802958D0A05FB07854FEA932C8C
:1004B00004FB0C542705029D4FEA065847EA1637FD
:1004C000B5EB08056EEB070C870E920E47EA811715
:1004D00042EA8312A7FB0201B6EB0B0164EB0004B6
:1004E0002B0D43EA0C335E1844EB1C50DA465146A0
:1004F000E7FB0201C5F313044FEA0B3343EA14533D
:100500004FEA0432019C43EA0603A4F10C0402946E
:10051000009CCDE900B400F062F903B0BDE8F08FB3
:1005200000200146F9E72DE9F04D81EA030404F0CB
:10053000004B21F0004514464FF0000A23F0004123
:1005400050EA050220D054EA01021DD0C5F30A5733
:100550000246C5F31303C1F31300C1F30A5640F476
:10056000801543F48013A7EB0608101BD64608F24B
:10057000FD3873EB050002D308F1010801E0921881
:100580005B41B8F1000F03DA00200146BDE8F08DB1
:1005900000204FF48011064684460EE0171B73EBD3
:1005A000050705D3121B63EB050306434CEA010C58
:1005B00049084FEA300092185B4150EA0107EDD13B
:1005C00052EA030012D082EA040083EA05010843DC
:1005D00005D0101BAB4106D20122002306E0002209
:1005E0004FF0004302E06FF0010253101AEB0600D7
:1005F0004CEB085110EB0A0041EB0B01BDE8F04D4C
:1006000000F0DEB896230022114600F0ABB80EB51C
:1006100040F2334102910021CDE900110A460B4618
:1006200000F0DDF803B000BD20F00040C10DC0F3C4
:10063000160040F400007F2901DA00207047962957
:1006400003DCC1F19601C840704796398840704775
:1006500000F0004230F000400AD0C10D01F5607199
:10066000C0F3160042EA0151C20840071143704727
:1006700000200146704701F0004330B421F00041F2
:1006800050EA010206D00A0DA2F56072C1F313010F
:10069000002A02DC30BC00207047440F44EAC10449
:1006A000C100E01830BC00EBC25000F052B82DE998
:1006B000F05F0546002092469B46884606468146E6
:1006C00040241BE0284641464746224600F028F9D0
:1006D00053465A46C01A914110D311461846224635
:1006E00000F016F82D1A67EB01084F46224601204C
:1006F000002100F00DF817EB00094E41201EA4F177
:100700000104DFDC484631462A464346BDE8F09FF7
:10071000202A04DB203A00FA02F1002070479140C1
:10072000C2F1200320FA03F3194390407047202AB6
:1007300006DBCB17203A41FA02F043EAE07306E009
:1007400041FA02F3D040C2F1200291400843194619
:1007500070470029A8BF7047401C490008BF20F01F
:100760000100704710B4B0FA80FC00FA0CF050EAB7
:10077000010404BF10BC704749B1CCF1200421FA38
:1007800004F411FA0CF118BF012121430843A3EB33
:100790000C01CB1D4FEA00614FEA102042BF002040
:1007A00010BC704700EBC35010440029A4BF10BC1C
:1007B0007047401C490008BF20F0010010BC704782
:1007C00010B5141E73F1000408DA401C41F1000159
:1007D00092185B411A4301D120F0010010BD2DE9B0
:1007E000F04D92469B4611B1B1FA81F202E0B0FAA7
:1007F00080F220329046FFF78BFF04460F4640EA16
:100800000A0041EA0B0153465A46084313D01146E9
:1008100053EA010019D0C8F14002504600F080F8B8
:1008200005460E46504659464246FFF771FF0843BB
:1008300005D0012004E020463946BDE8F08D0020B7
:10084000054346EAE0762C4337430A986305E40AF9
:10085000A0EB08000022FD0A44EA47540A3002D502
:1008600000200146E9E7010510196941DDE9084565
:1008700000196941BDE8F04DA2E770B521F00043D1
:1008800003430CD0C1F30A550024D5EB040564EBF7
:100890000403D617AD1AB34102DB0020014670BD38
:1008A000201841EB025170BD0EB5C10F80EAE07017
:1008B0000844CA07002140F233438DE80E000A467F
:1008C0000B46FFF78CFF03B000BD000030B5041EDF
:1008D00071F1000404DB4FF00044404264EB01017D
:1008E000141E73F1000405DB1C464FF00043524216
:1008F00063EB0403994208BF904230BD064C074D9C
:1009000006E0E06840F0010394E8070098471034DF
:10091000AC42F6D3FFF7EEFB687E0008887E000845
:10092000202A04DB203A21FA02F00021704721FA44
:1009300002F3D040C2F120029140084319467047AB
:100940002DE9F04D00231A461B1A8A4103DB0020D3
:100950000146BDE8F08DC1F30A52C1F3130141F421
:1009600080154FF0000BD10702D100186D41521EC7
:100970000027044640F2FF11384601EB620A3E466A
:100980008046024600204FF48011FFF7C9FFC219CC
:100990007141BB1846EB0100B4EB030C75EB000C86
:1009A00004D3E41A65EB000517460E46241908F136
:1009B00001006D4180463428E3DDF91946EB06005D
:1009C000091BA84103D24FF0FF32134601E0002279
:1009D00013461BEB070046EB0A51BDE8F04DFFF74D
:1009E000EFBE21B1826842F00102826003E08268BA
:1009F00022F0010282607047014600208A6802F0FE
:100A000004020AB1012000E0002070470146C86CD2
:100A100080B270470246002013680B400BB10120E2
:100A200000E000207047014600208A6802F00802BA
:100A30000AB1012000E000207047000070B50446B4
:100A40000D462B4601222146084800F039F80121C5
:100A5000064800F096F800BF02210448FFF7DAFFCD
:100A60000028F9D00148FFF7D1FF70BD00240140F4
:100A700030B502460020002350680F4C20400D790D
:100A80000C6844EA05242043506090680B4C2040D9
:100A9000D1E902542C434D7944EA45042043906047
:100AA000D06A20F470000C7C641EE4B2234340EA58
:100AB0000350D06230BD0000FFFEF0FFFDF7F1FFF4
:100AC000F0B504460D4600200021092D11DDE06837
:100AD000A5F10A0606EB4607072606FA07F1884342
:100AE000A5F10A0606EB460603FA06F10843E060A4
:100AF0000CE0206905EB4507072606FA07F1884355
:100B000005EB450603FA06F108432061072A0FDAD0
:100B1000606B561E06EB86071F2606FA07F1884310
:100B2000561E06EB860605FA06F10843606322E0CE
:100B30000D2A0FDA206BD61F06EB86071F2606FA52
:100B400007F18843D61F06EB860605FA06F108432F
:100B5000206310E0E06AA2F10D0606EB86071F266F
:100B600006FA07F18843A2F10D0606EB860605FAA0
:100B700006F10843E062F0BD816841F00801816040
:100B8000704721B1826842F4A002826003E082686B
:100B900022F4A00282607047816841F00401816004
:100BA0007047000000B585B00121480201F080F8CF
:100BB0004FF4004001F070F80020009003904FF4D3
:100BC0006020029000208DF805008DF804000120BF
:100BD0008DF8100069460D48FFF74AFF01210B48C8
:100BE000FFF7FFFE0948FFF7C7FF00BF0748FFF701
:100BF0001AFF0128FAD00548FFF7CEFF00BF0348CF
:100C0000FFF7FAFE0128FAD005B000BD002401402C
:100C10000648008A0649C989884203DD0120054942
:100C2000087202E000200349087270475400002057
:100C3000660000207A00002000BFFEE710B50A48D9
:100C4000007810B100F0C8FB01E000F0BBFB0648E3
:100C5000407920B10221054800F024FA03E0022186
:100C6000024800F01DFA10BD7A000020000C01407F
:100C700010B50024002000F029F804E0601CC4B284
:100C8000012001F033FE4FF400610F4800F0FFF93E
:100C900008B1642CF2DB642C01DB012010BD0024C0
:100CA00004E0601CC4B2012001F020FE4FF400619A
:100CB000054800F0ECF908B9642CF2DB642C01DB88
:100CC0000120EBE70020E9E70008014038B50446C1
:100CD00054B14FF40060ADF8000003208DF802001D
:100CE00010208DF8030006E04FF40060ADF800001E
:100CF00004208DF803006946014800F03DF938BD35
:100D00000008014010B5002404E0601CC4B20120BA
:100D100001F0ECFD4FF40061104800F0B8F908B1A3
:100D2000642CF2DB002404E0601CC4B2012001F05A
:100D3000DDFD4FF40061094800F0A9F908B9642C01
:100D4000F2DB282001F0D2FD4FF40061034800F0EF
:100D50009EF908B1012010BD0020FCE70008014009
:100D600070B50024002506E06006040EFFF7CAFFF8
:100D70000443681CC5B2082DF6DB204670BD7CB567
:100D800005460E4600F028F8FFF772FFF8B9002478
:100D900005E0FFF7E5FF0DF80400601CC4B2052C68
:100DA000F7DB9DF800009DF8011008449DF8021043
:100DB00008449DF8031008449DF80410884208D1A7
:100DC0009DF8000030709DF80200287001E00120BD
:100DD0007CBD0020FCE7000010B50120FFF776FF86
:100DE0004FF40061074800F05BF9142001F060FD4A
:100DF0004FF40061034800F055F90D2001F076FD35
:100E000010BD000000080140704700000149C860A3
:100E1000704700000020024030B5044604254FF41E
:100E2000302000F096F80546042D17D10C480069D3
:100E300040F002000A49086108464461006940F038
:100E4000400008614FF4302000F083F80546044864
:100E5000006941F6FD71084001490861284630BD2E
:100E60000020024004200B49C96801F0010109B1CA
:100E700001200EE00749C96801F0040109B1022010
:100E800007E00449C96801F0100109B1032000E03E
:100E900004207047002002400348006940F08000B1
:100EA00001490861704700000020024070B5044607
:100EB0000D460426F00200F04CF80646042E11D12F
:100EC0000948006940F00100074908612580F002E7
:100ED00000F03FF806460448006941F6FE710840FC
:100EE00001490861304670BD0020024002480349B4
:100EF000486003484860704723016745002002406E
:100F0000AB89EFCD2DE9F04104460F4615461E464C
:100F1000DDF81880FFF7EAFF3520FFF777FF20465E
:100F2000FFF77AFF39462046FFF7C0FF2946A01C8D
:100F3000FFF7BCFF3146201DFFF7B8FF4146A01D5B
:100F4000FFF7B4FF3520FFF761FFFFF7A5FFBDE80E
:100F5000F08100B502460423FFF784FF034603E057
:100F6000FFF780FF0346521E012B01D1002AF7D163
:100F700002B90523184600BD2DE9F04102460025BF
:100F80000026002000230024002791F803C00CF065
:100F90000F0591F803C00CF0100CBCF1000F03D04A
:100FA00091F802C04CEA050591F800C0BCF1000FB1
:100FB00031D0146800202BE04FF0010C0CFA00F344
:100FC000B1F800C00CEA03069E4220D183004FF026
:100FD0000F0C0CFA03F7BC4305FA03FC4CEA0404BB
:100FE00091F803C0BCF1280F06D14FF0010C0CFAA8
:100FF00000FCC2F814C00AE091F803C0BCF1480F2D
:1010000005D14FF0010C0CFA00FCC2F810C0401CD6
:101010000828D1D31460B1F800C0BCF1FF0F34DD53
:10102000546800202EE000F1080C4FF0010808FA87
:101030000CF3B1F800C00CEA03069E4221D18300F4
:101040004FF00F0C0CFA03F7BC4305FA03FC4CEA13
:10105000040491F803C0BCF1280F05D100F1080C7D
:1010600008FA0CF8C2F8148091F803C0BCF1480FDC
:1010700007D100F1080C4FF0010808FA0CF8C2F88B
:101080001080401C0828CED35460BDE8F081024691
:10109000002093680B400BB1012000E00020704756
:1010A00041617047016170470AB1016100E041612F
:1010B000704700002DE9F04786B000202249086003
:1010C0004FF48C7001F012FC07210420FFF7B6FCEE
:1010D0008246282001F00AFC01201C49C1F8840145
:1010E00042F2D05001F002FCBAF11E0F22D9504654
:1010F000FFF78DFA0022164BCDE90001FFF713FA36
:101100004FF06632134BCDE90201FFF79AF906461C
:10111000114A124BFFF795F98046114A114BFFF720
:101120008AF90022104BCDE90401FFF78AF9044641
:101130000D4601E00024254620462946FFF79BFA8C
:1011400006B0BDE8F0870000840121420000214282
:101150000000B04066660A40C3F5285C8FC2C53FF8
:101160009A9999999999B93F00408F4000BFFEE73D
:10117000032000BF011EA0F10102D0B2FAD17047D6
:1011800010B54FF480517F48FFF781FFB8B10020C0
:101190007D4908707D4908807D48007828B100208D
:1011A0007B49087001207B4908707B48007870B348
:1011B0000020794908700B207649087027E07248B2
:1011C0000078A0B971480088401C70490880084622
:1011D00000880A281BDD0020088001206C49087067
:1011E00000206D4908700120674908700FE06748CA
:1011F0000088401C6549088008460088B0F57A7F61
:1012000005DD0020624908700120634908704FF431
:1012100000515C48FFF73BFFB8B100205F49087000
:101220005F4908805F48007828B100205D49087058
:101230000220584908705C48007870B300205A4971
:10124000087002205349087027E054480078A0B97C
:1012500053480088401C52490880084600880A28E4
:101260001BDD0020088001204E49087000204E49F7
:1012700008700120494908700FE049480088401C67
:101280004749088008460088B0F57A7F05DD0020D0
:10129000444908700120444908704FF4804139489E
:1012A000FFF7F5FE28B1002040490870404908804A
:1012B0002DE03E48007888B93D480088401C3C49F4
:1012C0000880084600880A2821DD002008800320C5
:1012D0003049087001203549087018E0344800880A
:1012E000B0F5FA7F05DA32480088401C30490880A2
:1012F0000DE030480088401C2E49088008460088D0
:10130000052804DD002008800320224908704FF4DE
:1013100000411C48FFF7BBFE28B100202649087099
:10132000264908802DE02448007888B923480088A1
:10133000401C22490880084600880A2821DD002038
:10134000088004201349087001201B49087018E028
:101350001A480088B0F5FA7F05DA18480088401C62
:10136000164908800DE016480088401C1449088082
:1013700008460088052804DD00200880042005496F
:10138000087010BD000C01400F0000200C00002070
:101390000E00002024000020100000201500002076
:1013A0001200002014000020160000201D00002064
:1013B000180000201A000020230000201E0000203A
:1013C0002000002010B5002201210248FFF76CFE2A
:1013D00010BD0000000C014010B50122114602486A
:1013E000FFF762FE10BD0000000C014010B50521A2
:1013F0000020FFF723FB10BD2DE9F04F89B0002539
:1014000000270EE0FFF7F2FF8346FFF7FBF8804668
:101410002946FEF7A7FE0546052001F049FA781C8B
:10142000C7B20A2FEEDB28492846FEF725FF0546FE
:1014300026492846FEF7EEFE07464FF08B41FEF7A1
:101440001BFF04462046FFF703F90022204BCDE99D
:101450000201FEF7F6FF0746884621461B48FEF7C5
:10146000D3FE8346FFF7F4F83A464346CDE904013C
:10147000FFF759F8CDE90601FFF7FDF80646DFF85A
:1014800054903046FFF7E4F8CDE902014846FFF7F3
:10149000DFF80746104A114BFEF7D3FFCDE90001F4
:1014A000DDE90223FFF73FF84FF060420C4BCDE936
:1014B000040103F011FCCDE90601FFF7DCF88246D8
:1014C000504609B0BDE8F08F000020410000A04068
:1014D0000000E03FE17AD440A089B0E1E91527405F
:1014E000F0F4E43F01280ED108490978032902D11C
:1014F0000121074A117005490978042902D1002108
:10150000034A117000E000BF00BF704724000020B4
:101510007A00002008B50A48407940B10120102324
:10152000282219460090602000F0ACF907E0012065
:1015300010232A2219460090602000F0A3F908BD6C
:101540007A00002000BFFEE77047000070B500245D
:101550000CE0002506E00020074901EBC501085515
:10156000681CC5B2802DF6DB601CC4B2082CF0DB11
:1015700000F08EF870BD000085000020F0B5144624
:101580000B46CF1701EB5777C7F3C702CF1701EB15
:101590005777FF10A1EBC707FEB20123B340DDB2BE
:1015A0004CB1134B03EBC0039B5C2B43104F07EB79
:1015B000C007BB541AE00E4B03EBC0039B5CDB433C
:1015C0000B4F07EBC007BB54094B03EBC0039B5CFD
:1015D0002B43074F07EBC007BB54054B03EBC0037E
:1015E0009B5CDB43024F07EBC007BB54F0BD000020
:1015F0008500002010B580210A48FFF753FD4021E7
:101600000848FFF74FFDFFF7B3FD80210548FFF7BE
:1016100047FDFFF7ADFD40210248FFF741FDFFF711
:10162000A7FD10BD000C014010B580210648FFF752
:1016300037FD40210448FFF735FDFFF799FD802174
:101640000148FFF72FFD10BD000C014010B58021AF
:101650000848FFF727FDFFF78BFD40210548FFF7FE
:1016600021FDFFF785FD40210248FFF719FDFFF737
:101670007FFD10BD000C014010B50246012000E0C6
:1016800050430B1EA1F10104E1B2F9D110BD0000DD
:1016900070B500242BE004F1B001C8B2002100F0C5
:1016A000BDF90021084600F0B9F90021102000F032
:1016B000B5F9FFF79FFF782000F01EF8FFF7C6FF8F
:1016C000402000F019F8FFF7C1FF002509E00949A3
:1016D00001EBC501085D00F00FF8FFF7B7FF681CCC
:1016E000C5B2802DF3DBFFF79FFF601CC4B2082C4E
:1016F000D1DB70BD8500002070B5044600251BE0DD
:1017000004F0800020B180210D48FFF7CBFC03E0FE
:1017100080210B48FFF7C4FCFFF72AFD4021084851
:10172000FFF7C0FCFFF724FD40210548FFF7B8FC98
:101730006006040E681CC5B2082DE1DB70BD000018
:10174000000C01402DE9FE4F0746884692461C4694
:101750000197CDF80080082C02D14FF006091FE058
:101760002046E31704EB5373DB1021464FEAE47C79
:1017700004EB5C7C4FEAEC0CA4EBCC0CBCF1000F4E
:1017800002D04FF0010C01E04FF0000C6344224600
:1017900004EBD27C4FEA6C0C03FB0CF303F0FF0963
:1017A000AAF12000C6B200255EE0082C07D106EBA6
:1017B0004600304901EB400010F805B01DE00C2C4C
:1017C00007D106EB46002C4901EB800010F805B06C
:1017D00013E0102C05D1294800EB061010F805B0D5
:1017E0000BE0182C07D106EBC600254901EB800061
:1017F00010F805B001E0BDE8FE8F002002901CE06B
:101800000BF0010028B1414638460C9AFFF7B6FEAE
:1018100009E00C9808B9012000E00020024641468A
:101820003846FFF7ABFE4FEA6B0B08F1010000F002
:10183000FF080298401CC0B2029002980828DFDB23
:10184000781CC7B2082C0BD004EBD4714A10019954
:10185000791A8A4204D1019F00980830C0B20090E2
:10186000DDF80080681CC5B24D459EDBFFF710FF18
:1018700000BFC0E7A4590008CC5B00084060000826
:10188000306600082DE9FC4F0746884616461C4680
:10189000BB46CDF804802046E21704EB5272D2100A
:1018A0002146E31704EB5373DB10A4EBC3030BB126
:1018B000012300E000231A44624392B20092002503
:1018C00055E0102C05D12C4800EB461010F805A06F
:1018D0001BE0182C07D106EBC600284901EBC0001D
:1018E00010F805A011E0202C05D1254800EBC6100A
:1018F00010F805A009E0402C05D1224800EB462055
:1019000010F805A001E0BDE8FC8F4FF000091CE0D5
:101910000AF0010028B1414638460B9AFFF72EFE27
:1019200009E00B9808B9012000E00020024641467A
:101930003846FFF723FE4FEA6A0A08F1010000F07B
:10194000FF0809F1010000F0FF09B9F1080FDFDB22
:10195000781CC7B2A7EB0B00A04204D15F460198E8
:101960000830C0B20190DDF80480681C85B2009890
:101970008542A6DB00BFC6E78C7300080C7B00081D
:10198000547B0008D47B00082DE9FF4F83B0064646
:1019900091461F46DDE9104A4FF0000B082C01D19B
:1019A0004FF0020B002532E0781B401EC1B20A2026
:1019B000FFF762FEB9FBF0F00A21B0FBF1F201FB88
:1019C0001208B8F1000F0FD104EBD4710BEB6101D9
:1019D00001FB0561C8B223463022CDF800A0029475
:1019E0000499FFF7AFFE10E004EBD4710BEB61013B
:1019F00001FB0561C8B208F13001CAB22346CDF837
:101A000000A002940499FFF79DFE681CC5B2BD4278
:101A1000CADBFFF73DFE07B0BDE8F08F70B50546A5
:101A20000C46FFF7E7FD7820FFF766FEFFF70EFE96
:101A30001CB14020FFF760FE02E00020FFF75CFED3
:101A4000FFF704FE2846FFF757FEFFF7FFFDFFF7FD
:101A5000EBFD70BD08B5012010230D220021009080
:101A60000846FFF70FFF012010230E2200210090EF
:101A70001846FFF707FF01201023002211460090AF
:101A80002020FFF7FFFE01201023022200210090FA
:101A90003020FFF7F7FE012010233A2200210090AA
:101AA0004020FFF74FFEFFF7F3FD08BD38B50446B1
:101AB000012C02D0022C32D118E0012010233E224A
:101AC000002100900846FFF73DFE01201023202250
:101AD000194600900020FFF735FE01201023202238
:101AE000114600900020FFF72DFE19E00120102381
:101AF0002022002100900846FFF724FE0120102339
:101B00003E22194600900020FFF71CFE0120102302
:101B10002022114600900020FFF714FE00E000BFD5
:101B200000BF38BD08B501201023232220210090DA
:101B30001846FFF7A7FE0120102324222021009041
:101B40000846FFF79FFE0120102325222021009048
:101B50003020FFF797FE012010233A222021009029
:101B60004020FFF7EFFD08BD38B50446012C02D038
:101B7000022C42D120E0012010233E2200210090BF
:101B80000846FFF7DFFD01201023202219460090B0
:101B90000020FFF7D7FD01201023202211460090DE
:101BA0000020FFF7CFFD01201023202230210090DC
:101BB0000020FFF7C7FD21E0012010232022002193
:101BC00000900846FFF7BEFD012010232022194691
:101BD00000900020FFF7B6FD0120102320221146BF
:101BE00000900020FFF7AEFD012010233E2230219F
:101BF00000900020FFF7A6FD00E000BF00BF38BD49
:101C000008B5012010230022114600901846FFF766
:101C100039FE012010230222002100902020FFF72E
:101C200031FE012010231A22002100903020FFF7FE
:101C300029FE012010231B22002100904020FFF7E5
:101C400021FE012010233A22002100905020FFF7AE
:101C500079FD08BD70472DE9F047044600250026B0
:101C600012E0FFF727FA80462846FEF7CBFC8146B4
:101C70004146FEF777FA0746FEF7D6FC05460520F3
:101C800000F016FE701CC6B2A642EADBB5FBF4F00B
:101C900080B2BDE8F087000001460020034A50688A
:101CA00020F440400843506070470000001002409C
:101CB00029B1064A92690243044B9A6104E0034A3F
:101CC00092698243014B9A61704700000010024004
:101CD0007047000008B54FF400411948FFF7D7F9E5
:101CE00068BB142000F0E4FD4FF400411448FFF7F6
:101CF000CEF920BB012010232E221946009020206F
:101D0000FFF7C0FD012010232F221946009030203C
:101D1000FFF7B8FD01201023302219460090402023
:101D2000FFF7B0FD0120102331221946009050200A
:101D3000FFF7A8FD022002F0D9FDFFF7A9FC08BDBE
:101D4000000C01401CB501201021CDE90010044811
:101D50004278022300215A20FFF716FE1CBD000026
:101D60005400002010B50849481CFFF708F81E2051
:101D7000FFF771FF04490882FFF73EFB0446FEF7B8
:101D800053FC0149C88010BD540000200A48007867
:101D900002280DD100200849087008480078401C2E
:101DA0000649087008460078032801DD0120087004
:101DB000024800787047000024000020090000203D
:101DC00010B50C480078022808D100200949087095
:101DD00009480078401C0849087008E00648007867
:101DE000042804DDFFF7B2FB012003490870024814
:101DF000007810BD240000200A00002010B500F07B
:101E000001F810BD0CB50020019000903348006827
:101E100040F480303149086000BF3048006800F469
:101E2000003000900198401C0190009818B901986A
:101E3000B0F5A06FF1D12948006800F4003010B16E
:101E40000120009001E0002000900098012843D17B
:101E50002348006840F010002149086008460068E7
:101E600020F0030008600846006840F002000860A7
:101E70001A48406819494860084640684860084662
:101E8000406840F4806048600846406820F47C1058
:101E900048600846406840F4E8104860084600681A
:101EA00040F08070086000BF0C48006800F00070CF
:101EB0000028F9D00948406820F00300074948602D
:101EC0000846406840F00200486000BF0348406890
:101ED00000F00C000828F9D10CBD000000100240F1
:101EE000002002401CB501201021CDE90010094856
:101EF0004278022300215A20FFF746FD01201021DD
:101F0000CDE900100348027802235A20FFF73CFD78
:101F10001CBD000066000020042808D14FF0E0211D
:101F2000096941F004014FF0E022116107E04FF030
:101F3000E021096921F004014FF0E02211617047AE
:101F40007047000010B50B48006840F001000949D7
:101F500008600846406808490840064948604FF450
:101F60001F008860FFF74AFF4FF0006003490860D8
:101F700010BD0000001002400000FFF808ED00E076
:101F800010B50121880700F02AF828B1FFF7F8F80A
:101F90000121880700F020F810BD000010B50121D4
:101FA000054800F01CF828B10121034800F014F89E
:101FB00002F0E6F810BD00000004004010B5012159
:101FC000044800F00CF818B10121024800F004F8B0
:101FD00010BD000000080040CA430282704730B5BF
:101FE0000246002000230024158A05EA0103958992
:101FF00005EA010413B10CB1012000E0002030BD5E
:10200000012802D0022850D127E029490978032964
:1020100010D10021264A11702649C9890A31254A62
:10202000D1811146C989B1F5967F15DD4FF49671BE
:10203000D18111E01E49097804290DD100211C4AE3
:1020400011701C49C9890A391A4AD1811146C989B6
:10205000642901DA6421D18128E01549097803292E
:1020600010D10021124A1170124989890A31114A8E
:10207000918111468989B1F5967F15DD4FF49671EE
:10208000918111E00A49097804290DD10021084AFB
:102090001170084989890A39064A9181114689894E
:1020A0000A2901DA0A21918100E000BF00BF7047D0
:1020B000240000206600002008B540F225510948A0
:1020C00000F09EF868B140F22551064800F07CF817
:1020D000044800F0BFF8C0B200900121684601F04A
:1020E0009BFF08BD0044004010B540F22551314827
:1020F00000F086F800285BD02E4800F0ABF8C4B2A0
:102100002D48007820B1012817D002284AD127E0B5
:102110002C2C0CD129482A490978445428480078A5
:10212000401C2749087001202349087004E0002062
:10213000234908702049087034E020482049097874
:1021400044541F480078401C1D4908700846007818
:10215000062804DB0020087002201749087021E0DF
:102160001648007815494978084414498978084484
:102170001249C9780844114909790844C0B20F4985
:102180004979884208D100200B4908700C49087031
:1021900001200C49087004E0002009490870064934
:1021A000087000BF00BF40F22551024800F00CF853
:1021B00010BD000000480040310000202A0000202F
:1021C000320000203000002010B50022002340F62D
:1021D0006A14A14200D100BF0A1201249440A3B2A4
:1021E000DC43048010BD02460020B1F5007F00D121
:1021F00000BF13880B400BB1012000E000207047A6
:1022000070B50246002400230025002040F66A161F
:10221000B14200D100BFC1F3421501F01F030126F6
:1022200006FA03F3012D02D19689334006E0022D10
:1022300002D1168A334001E0968A33400C120126FF
:1022400006FA04F41688344013B10CB1012000E002
:10225000002070BD01468888C0F308007047C1F3B4
:1022600008028280704700BFFEE700000FB4054BF4
:1022700010B503A9044A029800F0A8F810BC5DF854
:1022800014FB00005D29000848000020490050EAC6
:10229000C12018BF04204A0D18BF40F0010040F2D1
:1022A000FF72B2EB515F08BF40F00200012808BF87
:1022B000052070472DE9F0414F1E00EBC701044691
:1022C000D1E9000115461E4637F006020DD02A4618
:1022D0003346FEF7B6F87F1E04EBC703D3E90023AD
:1022E000FEF708F837F00602F1D1022F25D0042FAF
:1022F00013D0062F18BFBDE8F0812A463346FEF7FB
:10230000A0F8D4E90A23FDF7F5FF2A463346FEF785
:1023100098F8D4E90823FDF7EDFF2A463346FEF787
:1023200090F8D4E90623FDF7E5FF2A463346FEF789
:1023300088F8D4E90423FDF7DDFF2A463346FEF78B
:1023400080F8D4E90223FDF7D5FF2A463346FEF78D
:1023500078F8D4E90023BDE8F041FDF7CBBF0000D9
:102360000022134610460149FEF7DDB80000F03F99
:10237000FDF7C0BF0022134610461146FEF7D3B842
:1023800040F2013200204FF0E041FEF776BA000043
:10239000024A00201107FEF770BA000001FDFFFF9E
:1023A00002E008C8121F08C1002AFAD1704770471E
:1023B000002001E001C1121F002AFBD1704700007C
:1023C0000149086070470000500000202DE9FF4FD0
:1023D0008DB00F460546002606E025280BD0DDE926
:1023E0000F1290476D1C761C28780028F5D111B08B
:1023F0003046BDE8F08F0024A246A1460122EC49F8
:1024000000E0044315F8013F203B02FA03F00842C4
:10241000F7D128782A2810D06FF02F022878A0F161
:102420003001092914D80AEB8A0102EB410144F07A
:10243000020400EB010A6D1CF0E701CF5FEA000A1D
:1024400003D544F40054CAF1000A44F002046D1CA0
:1024500028782E2817D115F8010F44F004042A28F3
:102460000ED06FF02F022878A0F1300109290AD888
:1024700009EB890102EB410100EB01096D1CF2E758
:1024800057F8049B6D1C28786C280FD006DC4C286C
:1024900017D068280DD06A2814D104E0742810D011
:1024A0007A280FD10DE044F400140AE044F48014BB
:1024B00001E044F440146978814202D104F58014AB
:1024C0006D1C6D1C2A786E2A1FD00CDC632A31D05B
:1024D00004DC002A8BD0582A11D1A3E0642A68D0EA
:1024E000692A0CD165E0732A2ED004DC6F2A73D0E0
:1024F000702A04D19BE0752A6FD0782A6ED01046DE
:10250000DDE90F129047761C50E1C4F30250022817
:1025100006D0032809D0042801CF09D0066045E180
:1025200001CFF117C0E9006140E101CF06803DE134
:1025300006703BE117F8040B8DF8000000208DF8C1
:102540000100EB46012003E057F804BB4FF0FF30D9
:1025500061074FF0000102D40DE008F10101884647
:1025600049450FDA8045F8DB1BF808100029F4D143
:1025700008E008F1010188468142FADB1BF80810E7
:102580000029F6D1DDE90F23AAEB08008146214698
:1025900000F036F9304400EB080604E0DDE90F12E4
:1025A0001BF8010B9047B8F10108F7D221464846C5
:1025B000F7E00A21C4F302534FF0000B0891022BFD
:1025C00004D001CFC117032B09D00AE0FF1D27F06B
:1025D0000707F7E8020108E032E01FE020E000B260
:1025E000C117042B01D140B2C117031E71F10003C2
:1025F00007DA4FF0000CD0EB0C006CEB01012D233F
:1026000002E0230504D52B238DF82430012303E0B9
:10261000E30701D02023F7E7984658E00A2110E0AD
:1026200010210EE010204FF0000B08900CE010215C
:102630004FF0000B44F004044FF00809089103E048
:1026400008214FF0000B0891C4F30253022B04D071
:1026500001CF0021032B06D006E0FF1D27F007075E
:10266000F7E8020103E080B2042B00D1C0B24FF0C2
:10267000000823072BD5702A07D0DDF820C08CF086
:10268000100C5CEA0B0C05D00EE040238DF82430D2
:10269000012308E050EA010306D030238DF82430EE
:1026A0008DF8252002239846DDF820C08CF0080C18
:1026B0005CEA0B0C0BD150EA010301D1630706D58C
:1026C00030238DF824304FF00108A9F10109582A70
:1026D00004D038A20B9208AA0A920BE03AA2F9E7BA
:1026E0005B46089AFDF7E3FF0B9B9B5C0A9A521E20
:1026F0000A92137050EA0102F2D10A98ADEB000081
:1027000000F1200B600702D524F4803401E04FF083
:102710000109D94502DDA9EB0B0000E0002000EB28
:102720000B0141440890AAEB010AE00306D4DDE95D
:102730000F232146504600F063F806444FF000098D
:1027400008E009A911F80900DDE90F12904709F125
:102750000109761CC145F4DBE0030CD5DDE90F234C
:102760002146504600F04CF8064404E0DDE90F1223
:1027700030209047761C0899481E08900029F5DC07
:1027800008E00A980A990078491C0A91DDE90F12BD
:102790009047761CBBF10001ABF1010BF1DC214647
:1027A0005046DDE90F2300F019F806446D1C1BE6C6
:1027B0000928010030313233343536373839616217
:1027C00063646566000000003031323334353637DB
:1027D0003839414243444546000000002DE9F041AC
:1027E000044600251E461746880404D405E03946F1
:1027F0002020B0476D1C641EF9D52846BDE8F08145
:102800002DE9F041044600251E469046C80301D537
:10281000302700E02027880404D505E041463846EB
:10282000B0476D1C641EF9D52846BDE8F08102460C
:1028300000210020137803F0010303B1491C137831
:10284000C3F3400303B1491C1378C3F3800303B1FE
:10285000491C1378C3F3C00303B1491C09B9002014
:1028600007E001F007030BB9C80802E0012303EBFE
:10287000D100704710B504466FF00400FFF74CFB21
:10288000E11704EB5171C1F3C701074A11701046FB
:10289000007800EB4001C1EBC0104FF6FF7101EA78
:1028A000C0000249088010BD26000020280000203A
:1028B00001460D4A12884A434FF0E0235A61002234
:1028C0009A6101221A6100BF4FF0E022106900F006
:1028D00001021AB100F48032002AF5D000224FF034
:1028E000E0231A619A6170472800002001460D4AD2
:1028F00012784A434FF0E0235A6100229A61012284
:102900001A6100BF4FF0E022106900F001021AB115
:1029100000F48032002AF5D000224FF0E0231A6143
:102920009A6170472600002001B581B00020009018
:10293000694601AA5078087010784870BDF8000008
:102940000CBD0146080601F47F4240EA022001F472
:102950007F0240EA122040EA1160704770B50446D9
:102960000D46E1B20548FFF77AFC00BF0348008836
:1029700000F080000028F9D0204670BD00380140EA
:1029800010B5002821D0114B0022001F196803E068
:10299000814203D80A4649680029F9D152B1136827
:1029A000841A9C4204D1006818441060104602E06A
:1029B000506000E0186039B102680B1A934203D1ED
:1029C0000B681A4402604968416010BD4C00002049
:1029D000024612B102F0070028B9082901D80020E8
:1029E00070470120FCE702F00700C0F108008842B0
:1029F00001D30020F4E70120F2E730B502460B4690
:102A00000021002400250AB9481E30BD002108E03D
:102A1000545C581A401E155C5554581A401E1454E4
:102A2000491CB1EB530FF3D30020EEE72DE9F04141
:102A300004460D460027002604B135B95FA0FFF714
:102A400015FC4FF0FF30BDE8F08100F03BFB06467F
:102A50002878217888420CD062A0FFF707FC6648EE
:102A600090F81E0120F00100401C634981F81E010E
:102A700001276878617888420CD060A0FFF7F6FBE8
:102A80005D4890F81E0120F00200801C5A4981F830
:102A90001E010127A878A17888420CD05CA0FFF71E
:102AA000E5FB554890F81E0120F00400001D524936
:102AB00081F81E010127D5F80300D4F803108842DD
:102AC0000CD058A0FFF7D2FB4B4890F81E0120F025
:102AD00008000830484981F81E010127D5F8070091
:102AE000D4F80710884213D055480068301A40F6D1
:102AF000B83188420CD353A0FFF7B8FB3E4890F89A
:102B00001E0120F0100010303B4981F81E01012702
:102B1000D5F80B00D4F80B10884213D04848006851
:102B2000301A40F6B83188420CD34BA0FFF79EFB19
:102B3000314890F81E0120F0200020302E4981F805
:102B40001E010127D5F80F00D4F80F10884213D0CA
:102B50003B480068301A40F6B83188420CD343A095
:102B6000FFF784FB244890F81E0120F0400040301D
:102B7000214981F81E010127D5F81300D4F813105C
:102B8000884213D02E480068301A40F6B831884287
:102B90000CD33BA0FFF76AFB174890F81E0120F00A
:102BA00080008030144981F81E010127012F03D1D4
:102BB00000F088FA22490860384644E767697A439A
:102BC0006865636B5265706F7274204572726F72C4
:102BD000202C20496C6C6567616C20506172616DBE
:102BE0000A00000076616C75654C6564204368617D
:102BF0006E6765640A0000001C05002076616C7534
:102C00006546414E204368616E6765640A000000B6
:102C100076616C75654A5351204368616E676564DF
:102C20000A00000076616C7565636F6E74726F6C7C
:102C30005F6D6F6465204368616E6765640A0000BC
:102C40003800002076616C756574656D702043688E
:102C5000616E6765640A000076616C756568756D04
:102C600069204368616E6765640A000076616C756F
:102C700065706D3235204368616E6765640A0000D7
:102C800076616C7565736D6F6765204368616E670B
:102C900065640A002DE9FC4705460C4616464FF0D0
:102CA00000080027B94600200090019028788DF890
:102CB00000000DB104B136B936A0FFF7D7FA4FF0D6
:102CC000FF30BDE8FC876846FFF7B1FD804608F19C
:102CD000010081449DF8000000F0010090B1112135
:102CE0002278601C81542078401C207043466A1C66
:102CF0000121384601F08AFA08B1012000E00020E5
:102D000030707F1C9DF80000C0F3400090B112218C
:102D10002278601C81542078401C207043466A1C35
:102D20000121384601F072FA08B1012000E00020CC
:102D300070707F1C9DF80000C0F3800090B11321DB
:102D40002278601C81542078401C207043466A1C05
:102D50000121384601F05AFA08B1012000E00020B4
:102D6000B0707F1C9DF80000C0F3C00078B1142142
:102D70002278601C81542078401C207043466A1CD5
:102D80000121384601F042FAC6F803007F1C0020FA
:102D900097E7000067697A44617461506F696E74E7
:102DA000324576656E74204572726F72202C204910
:102DB0006C6C6567616C20506172616D0A00000087
:102DC0002DE9FF4705460F4690464FF000090026C3
:102DD0000024002000900190674890F81E018DF8B3
:102DE0000000641C05B13FB964A0FFF73FFA4FF043
:102DF000FF3004B0BDE8F0875F4890F81E0100F096
:102E0000010038B12B780DEB04020121304601F0AE
:102E1000BFF9761C584890F81E01C0F3400038B145
:102E20006B780DEB04020121304601F0B1F9761CFC
:102E3000514890F81E01C0F3800038B1AB780DEB1B
:102E400004020121304601F0A3F9761C4A4890F8AB
:102E50001E01C0F3C00090B1D5F80300022805D3CD
:102E600052A0FFF703FA4FF0FF30C2E7D5F8033066
:102E70000DEB04020121304601F08AF9761C16B9E7
:102E80004FF0000908E006F0070010B94FEAD60934
:102E900002E0012000EBD609B9F1010F04D90DEBD6
:102EA00004004946FFF7A9FD4C44334890F81E0141
:102EB000C0F3001068B1D5F807200021012001F00F
:102EC00007FAC0B28DF809009DF809100DF804103A
:102ED000641C294890F81E01C0F3401068B1D5F871
:102EE0000B200021012001F0F3F9C0B28DF80A0097
:102EF0009DF80A100DF80410641C1F4890F81E017C
:102F0000C0F3801090B1D5F80F200021012001F00E
:102F1000DFF91FFA80FA5046FFF706FDADF80B0007
:102F20000DEB0400BDF80B100180A41C124890F8B2
:102F30001E01C00990B1D5F813200021012001F035
:102F4000C7F91FFA80FA5046FFF7EEFCADF80D0006
:102F50000DEB0400BDF80D100180A41C06480021F3
:102F600080F81E11C8F8004069463846D8F800209D
:102F7000FDF7D4F800203CE71C05002067697A447F
:102F8000617461506F696E7473325265706F7274E0
:102F900044617461204572726F72202C20496C6C00
:102FA0006567616C20506172616D0A005B45525229
:102FB0004F525D2076616C7565636F6E74726F6CD5
:102FC0005F6D6F6465204572726F72202C20496CB2
:102FD0006C6567616C204F766572737465700A006A
:102FE00070B5054600F06EF80446002625492846CF
:102FF000FFF71CFD012817D123A0FFF737F9214A5D
:103000001B3AA2F109012846FFF7DAFE38B9244835
:1030100000F21F11D0F82821142001F037F81722F0
:1030200029461848FDF77AF81E48B4FBF0F100FB7A
:10303000114018BB1C480068A0421FD01BA0FFF71E
:1030400015F9FF2201210F482538FDF779F80D4ABF
:103050001B3AA2F109012846FFF7B2FE38B9104821
:1030600000F21F11D0F82821142001F00FF81722C8
:1030700029460448FDF752F80B4804603046FFF734
:103080007FFC70BD5F0600206368616E6765642C1D
:10309000207265706F727420646174610A000000B0
:1030A0001C050020C02709003C000020496E666F07
:1030B0003A2036303053207265706F72742064612C
:1030C00074610A0001480068704700003400002065
:1030D00010B5174890F88500012827D1144890F8BA
:1030E000840002281DDAFFF7EDFF1149D1F8C21064
:1030F000401AC8281AD9FFF7E5FF04460C4890F893
:103100008430D0F8C22021460AA0FFF7AFF800F0C3
:10311000DBFE074890F88400401C054981F88400D4
:1031200004E0422102488430FDF711F810BD000090
:103130001C0500205761726E696E673A67697A50A4
:10314000726F746F636F6C526573656E6444617403
:10315000612025642025642025640A003EB50446CC
:10316000002524B913A0FFF781F8681E3EBD206832
:103170000090606801909DF80400401CC0B28DF87A
:1031800004000520FFF7D0FBADF8020009216846D6
:1031900000F0D8FE8DF808000921684602F08AFB8D
:1031A0000546002D03DA29460DA0FFF75FF82846F3
:1031B000DCE700004552523A2067697A50726F741A
:1031C0006F636F6C436F6D6D6F6E41636B206461F5
:1031D000746120697320656D707479200A000000A5
:1031E0004552523A20756172742077726974652075
:1031F0006572726F72202564200A0000FEB50446D5
:103200000E46002524B914A0FFF730F8681EFEBD55
:10321000684600F0D3F912208DF8040060798DF82B
:1032200005000620FFF780FBADF802008DF808606E
:103230000A21684600F086FE8DF809000A216846DA
:1032400002F038FB0546002D03DA29460DA0FFF7F2
:103250000DF82846DBE7000067697A50726F746FDB
:10326000636F6C4572726F72436D64204572726F4A
:1032700072202C20496C6C6567616C205061726112
:103280006D0A00004552523A2075617274207772BF
:10329000697465206572726F72202564200A0000CF
:1032A00030B59DB0044600252CB926A0FEF7DEFF00
:1032B000681E1DB030BD684600F080F902208DF810
:1032C000040060798DF805002AA103C9CDE9020147
:1032D0002BA103C9CDE904012CA103C9CDE9080143
:1032E0002DA103C9CDE9060100BF00BF0020CDF824
:1032F0004A00CDF84E009DF851008DF851009DF820
:10330000510040F002018DF851100020FFF70CFB36
:10331000ADF848006F20FFF707FBADF802007321FE
:10332000684600F00FFE8DF872007321684602F0C7
:10333000C1FA0546002D03DA29461AA0FEF796FFCA
:103340002846B6E767697A50726F746F636F6C478F
:103350006574446576696365496E666F204572726F
:103360006F72202C20496C6C6567616C2050617213
:10337000616D0A00303030303030303400000000F1
:1033800030303030303030320000000030333033F5
:1033900030303030000000003033303130313030E8
:1033A000000000004552523A207561727420777215
:1033B000697465206572726F72202564200A0000AE
:1033C0002DE9FE4F80460E4617464FF0000B0020B9
:1033D000029081468246002534460090B8F1000FE5
:1033E00001D006B137B955A0FEF740FF4FF0FF30CE
:1033F000BDE8FE8F404602F05BF91FFA80FABAF191
:10340000000F02D14FF0FF30F2E74FF0000969E002
:10341000012201A9404602F088F98346BBF1000F62
:103420005ED052480078FF281FD19DF80400FF2885
:103430001BD14F48007848B9FF20207060700220EF
:103440004C49088001204A49087040E049480088FA
:1034500004283CDD47480088A84238D0FF2020706F
:10346000607002204349088031E040480078FF281E
:1034700003D19DF80400552829D03D480078012843
:1034800025D19DF804003B490988605439480088DB
:10349000401C3849088008460088042817DD00943D
:1034A000009C6088FFF740FA001D85B23A2D01D2DA
:1034B000042D07DC00202E4908702E4908802EA01C
:1034C000FEF7D4FE2B480088A84200D10CE09DF8FE
:1034D00004002649087038480078401C36490870B6
:1034E00009F10109D14593DB00BF22480088042877
:1034F00022DD20480088A8421ED11E4801882046AF
:1035000000F020FD02901B480088401E215C0298BC
:1035100081420AD13D800020154908701549088074
:10352000254908701149087062E7002010490870A9
:1035300010490880801E5BE7012059E767697A50CF
:10354000726F746F636F6C4765744F6E6550616323
:103550006B6574204572726F72202C20496C6C650B
:1035600067616C20506172616D0A000044000020A8
:1035700040000020420000204552523A7468652005
:1035800064617461206C656E67746820697320746F
:103590006F6F206C6F6E67206F7220746F6F207377
:1035A0006D616C6C2C2077696C6C206162616E645B
:1035B0006F6E200A000000004500002010B5044690
:1035C0002CB907A0FEF752FE4FF0FF3010BD0020CF
:1035D00020606060FF20207060700020F6E700002F
:1035E0004552523A2067697A50726F746F636F6CFC
:1035F00048656164496E6974206865616420697317
:1036000020656D707479200A000000002DE9F04FEC
:103610009FB006468B461746994600201E9082466C
:103620008046002501ACBBF1000F06D131A0FEF7AA
:103630001DFE681E1FB0BDE8F08FB9F1010F06D165
:1036400096F8088008F10600384485B201E0781D3C
:1036500085B22B46424639462CA0FEF707FEFF20D6
:1036600004F8010B04F8010B281204F8010B04F80C
:10367000015B3079401C04F8010B707904F8010BF0
:10368000002004F8010B04F8019B4FF0080AB9F17F
:10369000010F0DD104F8018B0AF1010A01A901EB18
:1036A0000A00424606F10901FCF738FDC2444444D1
:1036B00037B101A901EB0A003A465946FCF72EFD45
:1036C000291D01A800F03EFC0146E81C01AA115486
:1036D000291D01A802F0EEF81E901E98002806DAB7
:1036E00014A01E99FEF7C2FD6FF00100A2E70020B2
:1036F000A0E700005B4552525D20206461746120A8
:103700004973204E756C6C200A0000006C656E20B9
:103710003D202564202C20734469644C656E203D57
:10372000202564202C646174615F6C656E203D20EF
:1037300025640A007561727420777269746520656A
:1037400072726F72202564200A0000002DE9F04794
:1037500080460C4617461D46089E94F800900CB112
:1037600005B136B937A0FEF781FD4FF0FF30BDE857
:10377000F087B8F1000F62D116213E48FCF7E7FC54
:10378000B9F1050F3AD0B9F1110F03D0B9F1120F09
:1037900053D110E038A0FEF769FD364A663235494C
:1037A000601CFFF777FA01203249C63908700025FE
:1037B0000020306042E039A0FEF758FD2D48C638A1
:1037C000617880F81E1100F5947200F21F1100F26A
:1037D0004310FFF7F5FA68B92648C63800F21F1102
:1037E000D0F82821681CFCF799FC132028700920C8
:1037F000306002E04FF0FF30B9E71FE07A1E611C35
:103800001C488B38FCF78AFC781E1A49C639886731
:1038100010211848C63890F8C620C7308154C738E0
:1038200090F8C600401C1349C63981F8C600032031
:10383000087000250020306000E000BF00BF0020BD
:1038400095E7000067697A50726F746F636F6C4917
:10385000737375656450726F63657373204572721C
:103860006F72202C20496C6C6567616C205061720E
:10387000616D0A00E2050020414354494F4E5F4507
:103880004C4F4E474154455F434F4E54524F4C5F4F
:10389000444556494345200A00000000414354492D
:1038A0004F4E5F454C4F4E474154455F5245414452
:1038B0005F4445565F535441545553200A0000005D
:1038C00070B5044625462CB90EA0FEF7CFFC4FF08C
:1038D000FF3070BD412205F108010E48FCF71EFCC7
:1038E0000F210D4890F8082100F2091081540A4870
:1038F00090F80801401C084981F80801052008706B
:103900000020E6E74E545020697320656D7074798D
:10391000200A0000840600201C05002010B5044683
:103920002CB9CAA0FEF7A2FC4FF0FF3010BD2089D1
:10393000FEF7FAFF2081D1480078C0F38000217A99
:10394000C1F38001884256D0207AC0F3800000285D
:1039500029D0207A00F0010078B10021C84890F801
:10396000DC20DD308154DD3890F8DC00401CC44997
:1039700081F8DC00C3A0FEF779FC207AC0F3400098
:10398000002838D00121BE4890F8DC20DD30815479
:10399000DD3890F8DC00401CB94981F8DC00C1A09A
:1039A000FEF764FC27E0207A00F0010078B10021E6
:1039B000B34890F8DC20DD308154DD3890F8DC002D
:1039C000401CAF4981F8DC00AEA0FEF74FFC207A26
:1039D000C0F3400078B10221A94890F8DC20DD3026
:1039E0008154DD3890F8DC00401CA54981F8DC00EA
:1039F000B3A0FEF73BFCA1480078C0F3C000217AD9
:103A0000C1F3C00188422CD0207AC1089B480078BD
:103A100061F3C30099490870207AC0F3C00080B1F7
:103A20000321974890F8DC20DD308154DD3890F890
:103A3000DC00401C924981F8DC00A8A0FEF716FCCF
:103A40000FE004218E4890F8DC20DD308154DD3811
:103A500090F8DC00401C8A4981F8DC00A7A0FEF742
:103A600005FC86480078C0F30010217AC1F30011EC
:103A700088422CD0207A01098048007861F3041034
:103A80007E490870207AC0F3001080B105217C487F
:103A900090F8DC20DD308154DD3890F8DC00401CEB
:103AA000774981F8DC009DA0FEF7E0FB0FE00621DE
:103AB000734890F8DC20DD308154DD3890F8DC006C
:103AC000401C6F4981F8DC009CA0FEF7CFFB6B48DF
:103AD0000078C0F34010217AC1F3401188422CD005
:103AE000207A41096548007861F345106349087000
:103AF000207AC0F3401080B10721614890F8DC20A3
:103B0000DD308154DD3890F8DC00401C5C4981F8E0
:103B1000DC0093A0FEF7AAFB0FE00821584890F8BC
:103B2000DC20DD308154DD3890F8DC00401C544945
:103B300081F8DC0091A0FEF799FB50484078C0F373
:103B4000C001607AC0F3C00081422CD0607AC10805
:103B50004A48407861F3C30048494870607AC0F32E
:103B6000C00080B10B21464890F8DC20DD30815444
:103B7000DD3890F8DC00401C414981F8DC0087A06A
:103B8000FEF774FB0FE00C213D4890F8DC20DD309F
:103B90008154DD3890F8DC00401C394981F8DC00A4
:103BA00085A0FEF763FB35484078C0F30011607ACA
:103BB000C0F3001081422CD0607A01092F48407870
:103BC00061F304102D494870607AC0F3001080B191
:103BD00009212B4890F8DC20DD308154DD3890F845
:103BE000DC00401C264981F8DC007BA0FEF73EFB90
:103BF0000FE00A21224890F8DC20DD308154DD38C6
:103C000090F8DC00401C1E4981F8DC0079A0FEF72A
:103C10002DFB0D211A4890F8DC20DD308154DD3871
:103C200090F8DC00401C164981F8DC00607A00F056
:103C3000070081F85A01084690F85A1174A0FEF75F
:103C400015FB02200E49087000206FE667697A5064
:103C5000726F746F636F6C4D6F64756C65537461D4
:103C6000747573204572726F72202C20496C6C65DC
:103C700067616C20506172616D0A0000460000208F
:103C80001C0500204F6E426F617264696E673A20B6
:103C9000536F66744150206F7220576562206D6FBC
:103CA00064650A004F6E426F617264696E673A2004
:103CB0004169724C696E6B206D6F64650A0000008B
:103CC0004F6E426F617264696E673A20537461741B
:103CD000696F6E206D6F64650A0000005769466960
:103CE000207374617475733A20696E2062696E6422
:103CF000696E67206D6F64650A0000005769466948
:103D0000207374617475733A206F75742062696EE4
:103D100064696E67206D6F64650A000057694669C3
:103D2000207374617475733A20636F6E6E6563748B
:103D3000656420726F757465720A00005769466980
:103D4000207374617475733A20646973636F6E6E67
:103D5000656374656420726F757465720A00000093
:103D600057694669207374617475733A20636F6E86
:103D70006E6563746564206D326D0A00576946692B
:103D8000207374617475733A20646973636F6E6E27
:103D90006563746564206D326D0A00005769466979
:103DA000207374617475733A2061707020636F6E54
:103DB0006E6563740A000000576946692073746178
:103DC0007475733A206E6F2061707020636F6E6E31
:103DD0006563740A000000005769466920737461C6
:103DE0007475733A20696E2074657374206D6F6406
:103DF000650A000057694669207374617475733AE7
:103E0000206F75742074657374206D6F64650A008B
:103E100052535349206973202564200A0000000092
:103E200070B5044625462CB919A0FEF71FFA4FF0CD
:103E3000FF3070BD1B48A9680160A9898180A97BFA
:103E40008171A0F5AE70D5F80F10C0F8641101466D
:103E5000B1F85C01FEF768FD1349A1F85C01D1F8E7
:103E60006401FEF76EFD1049C1F864010E210E4891
:103E700090F8F220F3308154F33890F8F200401CAF
:103E8000094981F8F200042008700020D1E7000001
:103E90004552523A204E545020697320656D70741B
:103EA00079200A00780600201C05002010B5FFF7D5
:103EB00009F9044600BFFFF705F9001BB0F5167FAE
:103EC000F9D900F0F1FE10BD10B500240E4890F8AD
:103ED000850000B910BD0DA0FEF7C8F90A48B0F87A
:103EE000C010863001F0E6FC04460748B0F8C00078
:103EF000A04202D00DA0FEF7B9F9FFF7E3F802499E
:103F0000C1F8C20000BFE5E71C0500205761726ED2
:103F1000696E673A2074696D656F75742C207265DF
:103F200073656E642064617461200A004552523AE0
:103F300020726573656E64206461746120657272BD
:103F40006F720A0010B502460024002302B109B9BD
:103F5000002010BD022303E0D05C2044C4B25B1CEF
:103F6000481E9842F8D82046F3E7000070B5044692
:103F70000D462CB90FA0FEF779F94FF0FF3070BD58
:103F800042211248FCF7E3F82A4621460F48801CDC
:103F9000FCF7C4F80D488438A0F8C050012180F81F
:103FA0008510FFF78FF809498439C1F8C200002055
:103FB000E5E700004552523A20646174612069735C
:103FC00020656D707479200A00000000A0050020B3
:103FD00070B50446094D2CB909A0FEF747F94FF01A
:103FE000FF3070BD2879401C2179884204D14221DC
:103FF0000248801EFCF7ABF80020F2E7A205002083
:104000004552523A206461746120697320656D7075
:104010007479200A0000000070B504460D460026A1
:1040200024B90AA0FEF722F9701E70BD2A46214667
:104030000E4801F0CBFB0646AE4205D00CA0FEF7C1
:1040400015F94FF0FF30F0E73046EEE74552523AAF
:104050002067697A507574446174612062756620C6
:10406000697320656D707479200A0000C80600200D
:104070004552523A204661696C656420746F207223
:10408000625772697465200A000000002DE9F04350
:104090008FB006460F4690464FF000096C4608F177
:1040A000060085B23FB924A0FEF7E0F84FF0FF30DC
:1040B0000FB0BDE8F083FF2004F8010B04F8010BFA
:1040C000281204F8010B04F8015B052004F8010B29
:1040D000234890F87C10C06F401C214AD06704F838
:1040E000011B002004F8010B04F8010B04F8016B1C
:1040F000424639460DF10900FCF710F8291D6846C3
:10410000FFF720FF0146E81C0DF80010291D684646
:1041100001F0D0FB8146B9F1000F06DA494611A043
:10412000FEF7A4F86FF00100C2E7291D6846FFF70B
:104130001DFF0020BCE7000067697A5265706F724E
:104140007444617461204572726F72202C20496C36
:104150006C6567616C20506172616D0A000000003F
:104160001C0500204552523A207561727420777206
:10417000697465206572726F72202564200A0000E0
:1041800002480068401C0149086070473400002064
:104190002DE9F0470546884614461E464FF00009B3
:1041A000CA460027002314B9581EBDE8F087EB0863
:1041B00041462846FEF70CFC07463FB9E05C05F097
:1041C000070106FA01F10843E0541DE0012F1BD15D
:1041D000F0B205F00701C1F1080140FA01F905F05C
:1041E0000700C0F10801FF20084100EA060A581C38
:1041F000205C40EA0900591C6054E05C05F00701AE
:104200000AFA01F10843E0540020CEE72DE9F04F0F
:104210008FB004460F4690461D460026B246B14672
:10422000B34600200E90B8F1000F00D025B94FF032
:10423000FF300FB0BDE8F08F4FEAD4092A4641465F
:1042400001A8FBF76BFF012D09D9294601A8FEF74C
:10425000D4FBB0F1FF3F02D14FF0FF30E9E7394620
:104260002046FEF7B5FB8246BAF1000F0CD101A83B
:1042700010F8090004F007010841C7F10802FF2106
:1042800011410840064321E0BAF1010F1ED101A9F6
:1042900009F10100085C04F00701C1F10801791A75
:1042A000C1F10802FF21114100EA010B01A810F839
:1042B000090004F0070108410E9004F00700C0F166
:1042C00008010BFA01F006430E9806433046B0E7AA
:1042D00010B503460020541AB4FBF3F010BD0000E3
:1042E0002DE9FF5F07460E4693464FF0000835461E
:1042F000B1463446B24607B126B94FF0FF3004B09C
:10430000BDE8F09F4FF00008B1E0781C10F80800FD
:10431000152870D2DFE800F0797A7BA5A57C7D7E38
:104320007FA5A5A5A5808A99860B243E57002878ED
:10433000524908700846017851A0FDF797FF4F4891
:104340000078012805D153490870032052490870AC
:1043500005E001204F49087004204F49087081E0B2
:10436000687846494870084641784CA0FDF77EFFC2
:1043700042484078012806D10220464908700320AF
:104380004549087005E0022042490870042042496E
:10439000087067E0A878394988700846817844A099
:1043A000FDF764FF35488078012805D1032039499D
:1043B00008703949087005E0032036490870042068
:1043C000354908704EE0D5F803002C49C1F80300C8
:1043D0000846D0F803103BA0FDF748FF2748D0F867
:1043E000030010B101280DD106E000203C4908600F
:1043F000FDF7ACF807E034E0012039490860FDF72B
:10440000A5F800E000BF00BF2CE02BE02AE029E087
:1044100028E027E026E025E099F8001031A0FDF71C
:1044200025FF1FE032A0FDF721FF1BE0A179627993
:104430002379A068CDE90032CDE90210E378A278B3
:10444000218830A0FDF712FF0CE039A0FDF70EFF28
:104450003CA0FDF70BFF9AF800103EA0FDF706FF09
:1044600000E000BF00BF08F1010000F0FF0838784D
:1044700040453FF74AAF002041E700000505002016
:104480004576743A204556454E545F4C6564202568
:1044900064200A0009000020240000204576743AB8
:1044A000204556454E545F46414E202564200A0063
:1044B0004576743A204556454E545F4A535120255F
:1044C00064200A004576743A204556454E545F6391
:1044D0006F6E74726F6C5F6D6F64652025640A0087
:1044E00004000020525353492025640A00000000B4
:1044F0005452414E53504152454E545F44415441F1
:10450000200A0000574946495F4E5450203A205B2C
:1045100025642D25642D256420253032643A25300C
:1045200032643A253032645D5B25645D200A000008
:104530004D4F44554C4520494E464F202E2E2E0AB5
:1045400000000000574946204D4F44554C45202E51
:104550002E2E0A006D6F64756C6554797065203A73
:10456000205B25645D200A002DE9F041A0B00546DE
:10457000002600200290019000248046002735B9D3
:1045800082A0FDF773FE601E20B0BDE8F081FEF74B
:104590009FFD02AA87498848FEF712FF0646002EB3
:1045A00071D186A0FDF762FE824C20790F284FD092
:1045B0000ADC0E2873D2DFE800F07216721A7272EB
:1045C000433872724472453C182852D006DC1128D8
:1045D00047D0142846D0162861D134E0222854D080
:1045E0002A285CD130E02046FEF75AFE5FE0E279EF
:1045F000A17977A0FDF73AFE01A8009007F1090024
:10460000BDF808301A1A6B480830C11903AB404690
:10461000FFF79CF840B9E37903A92046019AFEF719
:10462000F5FF6FA0FDF722FE41E02046FEF796FD64
:104630003DE02046FEF792FD2046FFF76FF936E099
:1046400000BF00BF00BF00BF2046FFF7C1FC2EE047
:104650002046FEF783FD65A0FDF708FEFFF726FC68
:1046600025E024E02046FFF7B3FC65A0FDF7FEFD42
:104670001DE02046FFF7ACFC2046FFF7D1FB68A009
:10468000FDF7F4FD13E013E009E02046FFF7A0FC7E
:104690002046FFF715F968A0FDF7E8FD07E00221C5
:1046A0002046FEF7ABFD6BA0FDF7E0FD00BF0DE07F
:1046B00016F1020F0AD13F4C01212046FEF79EFD64
:1046C0006AA0FDF7D3FD6FF001005DE73948401E99
:1046D0000078062852D2DFE800F05103142530415B
:1046E00000203449491E0870172201F59671A1F186
:1046F0006600FFF7F5FD16212E48C530FBF727FDB4
:104700003DE000202B49491E0870012201F5AD71E2
:10471000A1F17E00FFF7E4FD16212648DB30FBF710
:1047200016FD2CE000202349491E087008463B3145
:10473000826FC630FFF7D4FD21E000201D49491EDD
:1047400008700C2201F5AE71A1F16A00FFF7C8FDF7
:1047500016211848F130FBF7FAFC10E0002015494B
:10476000491E0870412201F5B471A1F16000FFF704
:10477000B7FD41214348FBF7EAFC00E000BF00BF62
:104780002846FEF72DFC0020FEE6000047697A77F8
:1047900069747348616E646C65204572726F722033
:1047A0002C20496C6C6567616C20506172616D0AE8
:1047B000000000001D050020C80600204765742089
:1047C0004F6E65205061636B6574210A0000000024
:1047D000666C6167202578202578200A000000009B
:1047E00041636B44617461203A200A007265706F06
:1047F00072743A4D4355207265626F6F74210A00DE
:1048000041636B2050524F44554354494F4E5F4DC6
:104810004F44452073756363657373200A0000007D
:1048200041636B204745545F55545420737563634F
:10483000657373200A00000041636B204745545F95
:104840004D6F64756C652073756363657373200ABF
:10485000000000004552523A20636D6420636F648B
:1048600065206572726F72210A0000004552523A4B
:1048700020636865636B2073756D206572726F725B
:10488000210A00002406002010B574200A4908609F
:104890000A48C860084600F03DFF18B908A0FDF7B7
:1048A000E5FC02E00BA0FDF7E1FC4FF4D6710E48E9
:1048B000FBF74DFC10BD0000C8060020D806002004
:1048C00072624372656174652053756363657373C7
:1048D000200A000072624372656174652046616956
:1048E0006C64200A000000001C05002030B587B071
:1048F00005460024062D7CD2DFE805F0032E5B8AF6
:10490000B5E001A8FEF75AFE0B208DF80800854897
:1049100090F87C10C06F401C824AD067C8B28DF8F6
:1049200009000520FEF700F8ADF80600092101A8EE
:10493000FFF708FB8DF80C00092101A800F0BAFF71
:104940000446002C03DA214677A0FDF78FFC0921ED
:1049500001A8FFF70BFBE0E004A8FEF72FFE0920FB
:104960008DF814006F4890F87C10C06F401C6D4AA1
:10497000D067C8B28DF815008DF818500620FDF7E5
:10498000D3FFADF812000A2104A8FFF7DBFA8DF877
:1049900019000A2104A800F08DFF0446002C03DA58
:1049A000214661A0FDF762FC0A2104A8FFF7DEFAA8
:1049B000B3E004A8FEF702FE09208DF81400594860
:1049C00090F87C10C06F401C564AD067C8B28DF872
:1049D00015008DF818500620FDF7A6FFADF812005F
:1049E0000A2104A8FFF7AEFA8DF819000A2104A8DD
:1049F00000E08EE000F05EFF0446002C03DA214662
:104A000049A0FDF733FC0A2104A8FFF7AFFA84E0C0
:104A100001A8FEF7D3FD13208DF80800414890F857
:104A20007C10C06F401C3F4AD067C8B28DF80900A7
:104A30000520FDF779FFADF80600092101A8FFF771
:104A400081FA8DF80C00092101A800F033FF04461B
:104A5000002C03DA214634A0FDF708FC092101A847
:104A6000FFF784FA59E001A8FEF7A8FD15208DF89C
:104A700008002C4890F87C10C06F401C294AD06771
:104A8000C8B28DF809000520FDF74EFFADF806000D
:104A9000092101A8FFF756FA8DF80C00092101A899
:104AA00000F008FF0446002C03DA21461EA0FDF7A3
:104AB000DDFB092101A8FFF759FA2EE001A8FEF756
:104AC0007DFD29208DF80800164890F87C10C06FF5
:104AD000401C144AD067C8B28DF809000520FDF7C4
:104AE00023FFADF80600092101A8FFF72BFA8DF886
:104AF0000C00092101A800F0DDFE0446002C03DAB9
:104B0000214609A0FDF7B2FB092101A8FFF72EFA03
:104B100003E00CA0FDF7AAFB00BF00BF204607B0D2
:104B200030BD00001C0500204552523A20756172CC
:104B300074207772697465206572726F72202564C3
:104B4000200A00004552523A204366674D6F646563
:104B5000206572726F72210A0000000008B5FDF72F
:104B6000F1F94820FDF786FEFCF71CF845A0FDF79B
:104B70007DFBFCF7EBFC00F0FDFEFFF785FE02205D
:104B8000FFF7B4FEC820FDF793FEFDF7A3F84FF43E
:104B9000FA70FDF78DFEFCF715FCFCF7D7FC6FE013
:104BA000FDF7E0F83948006820B1012813D0022849
:104BB00064D137E0002036498872FCF74BFFFDF7DF
:104BC000C1F8FCF725F8FCF739F800F09FFE3148F2
:104BD000FFF7CAFC53E001202D498872FDF7D6F893
:104BE0000446FCF763FFFDF7D1F80346FCF77AFCB7
:104BF000FCF798FFFCF78EFC27480078012809D1C4
:104C000000202549087021490860012023490870C7
:104C1000FCF79CFCFCF712F800F078FE1D48FFF74B
:104C2000A3FC2CE0FDF7CCF80446FCF79DFFFDF754
:104C3000C7F80446FDF7E4F9FCF7E2FFFDF752F987
:104C400015480078012813D10020134908700F4936
:104C50000860012011490870FCF778FC1048808931
:104C600000900F48C389027841780E48FCF74AF952
:104C700000F04CFE0748FFF777FC00E000BF00BFE4
:104C80008EE700005374617274200A000400002053
:104C90007A000020050500202400002008000020E4
:104CA0006600002000F00108012080F3138800BF97
:104CB00000BF0748006800F4E06006490843001D93
:104CC00003490860BFF34F8F00BF00BFFEE700003D
:104CD0000CED00E00000FA052DE9F04D1D460C46F4
:104CE00098B0174621F0004123F00043002814BF7C
:104CF0004FF0010C4FF0000C0CEB440CFE4A0CEB97
:104D000002064FEA620C66452BD33E0018BF01260F
:104D100006EB45061644F94A964222D3F84A53EA6E
:104D2000070C02D0944205D148B918B000201146B2
:104D3000BDE8F08D002808BF4FF0000C01D04FF007
:104D4000010C0CEB440212F5001F0AD8002F14BF0F
:104D50004FF0010C4FF0000C0CEB450212F5001F58
:104D600007D918B03A462B462146BDE8F04DFDF76D
:104D7000FFBA0022DFF88CA3002CB8BF534526DA17
:104D8000DFF884C36345A8BF022220DADFF870C3CE
:104D90009C451CDCDFF874C30CEB235CBCF1140FE6
:104DA00008DDCCF1340627FA06FC0CFA06F6BE4202
:104DB0000DD108E05FB9CCF1140623FA06FC0CFA19
:104DC00006F69E4203D10CF00102C2F1020251EA42
:104DD000000C19D1002D17DA002C18BF022A01D0BF
:104DE000012A07D00220FDF7EBFA18B0BDE8F04D1C
:104DF000FDF7B6BA0220FDF7E3FAFDF7B1FA18B0F5
:104E000081F00041BDE8F08DB7F1000C6CD1534545
:104E100025D104F1804212F5801201BF0028002044
:104E2000B74918B008BFBDE8F08DB548884207DC27
:104E3000002DA1BF6046294618B0BDE8F08D07E0FF
:104E4000281E05DA80F0004118B06046BDE8F08DFC
:104E5000AF497944D1E9000118B0BDE8F08DDFF821
:104E6000A0C2634525D1002D1FDA19B1514512D1D9
:104E7000D8B909E0002840F0EC82A24A214618B0D7
:104E800062F31E01BDE8F08D0020214618B060F3EA
:104E90001E01BDE8F08D08DA18B02346BDE8F04DDC
:104EA000024600206146FBF73EBB18B02146BDE834
:104EB000F08D514518DAB5F1804F0DD0A5F1005CA9
:104EC000BCF1FF5C10D1B4F1000C0DDB18B06146F1
:104ED000BDE8F04D00F0C7BC234618B00246BDE85F
:104EE000F04D1946FBF7ADBA060024F0004C3BD15B
:104EF000D9B1514533D1002C06DD002DA1BF0020D2
:104F0000514618B0BDE8F08D002C01DD002D1BDBF3
:104F1000002C13DA002D11DB012A4FF0000014BF22
:104F200078497C4918B0BDE8F08D022A18BF002CE2
:104F30000AD0012A08D1002C06DA0AE0002CB8BFFA
:104F4000002D11DA012A04D0002018B00146BDE876
:104F5000F08D18B000204FF00041BDE8F08DA1F1B8
:104F60004050B0F17F601AD0012000EBE47050EAAD
:104F7000020421D0624C521E4FF0000B104304BFBC
:104F80004FF0000B644C654883427CDD644A654801
:104F900093421FDD884217DB002D25DB37E0002C14
:104FA00000DA4AB1022A0CBF01204FF0FF3018B0DE
:104FB000BDE8F04DFBF778BC0120FDF701FA18B011
:104FC000BDE8F04DFDF7D6B94D4A8A4202DC002D0E
:104FD0000ADC1CE0814202DA002D18DA04E0484BBA
:104FE000994220DD002D12DD0220FDF7E9F9FDF7E1
:104FF000C7F905460E460022534658462146FBF7A0
:1050000020FA18B066F31E012846BDE8F08D022094
:10501000FDF7D6F9FDF7BCF90A46214618B062F350
:105020001E01BDE8F08D002230466146FBF703FA11
:1050300080460E466FF00102FBF71FFC4FF0553221
:10504000394BFBF7FBF942463346FBF7FAF90022EE
:10505000364BFBF7F3F9824642463346049110463D
:105060001946FBF7EEF95246049BFBF7EAF98A462C
:1050700000904FF0C0422E4B40463146FBF7E1F91D
:105080002C4A2B4B00E027E0CDE906015146009861
:10509000FBF7D7F982460191274A284B4046314613
:1050A000FBF7CFF95246019BFBF7C5F982460B4649
:1050B00002460591DDE90601FBF71CF9DDE906234F
:1050C000002688463046FBF7B6F95246059BFBF7AB
:1050D000B5F9024600F07EB90020B1F5801F07DA6D
:1050E000352230466146FBF7C8FB06466FF03400B8
:1050F00000EB215024E00000FFFF1F00FFFF0F0026
:105100000000F03F0000F07F0000404301FCFFFF83
:105110000A3000000000F0FF0000F0BF0000E04196
:105120000000F043FFFFEF3F5555D53F0000E03F43
:105130004715F73FFE822B6544DF5DF80BAE543E0A
:10514000A0F2FF300190C1F3130040F07F6141F005
:1051500040510291FE498842D8BF002004DDFD493C
:105160008142C8BF012001DD0D9008E000200D90B4
:105170000198401C01900298A0F5801002900299BD
:10518000F54878440B910D9900EBC100D0E900235C
:105190000F9330460A920B99FBF74DF9CDE90601C2
:1051A000DDE90A2130460F9BFBF7A4F802460B46C7
:1051B0000020EA49FBF7B7F9059102460B4600903B
:1051C000DDE90601FBF73DF91490E5488A464FF00A
:1051D000000878440299006812904FF0005040EAAD
:1051E00061010D980F9B01EB804000F500210991B2
:1051F0000A9A1298FBF71FF932460B9BFBF71EF930
:1052000042465346FBF71DF9064602914046514679
:10521000099B129AFBF715F9DDE90623FBF70EF956
:105220003246029BFBF707F9059B009AFBF709F949
:105230000091149A0490534610461946FBF701F961
:1052400006460246C7480B46029106217844FDF700
:1052500031F8CDE90510029B324610461946FBF79E
:10526000F0F8DDE90532FBF7ECF805910646534608
:1052700040461946149AFBF73DF8009B049AFBF749
:10528000E0F83246059BFBF735F8CDE905104246BC
:10529000534610461946FBF7D4F80022B24B029150
:1052A0000A90FBF727F8DDE90532FBF723F80E46F5
:1052B0004246AD4B4046FBF7BEF8029B0A9AFBF70D
:1052C000BAF8DDE90532FBF7B9F8424602910A90D7
:1052D000334610465146FBF7B4F8CDE90601534674
:1052E000149A02990A98FBF7ACF88A460290334662
:1052F000424600990498FBF7A4F85346029AFAF73D
:10530000F9FF82460B4602460591DDE90601FAF7F0
:10531000F1FFDDE90623002088460646FBF78BF8FF
:105320005246059BFBF78AF8824609914FF060428E
:105330008E4B30464146FBF784F8049006918C4A28
:105340008A4B50460999FBF77CF882460291894ABC
:10535000894B30464146FBF774F85246029BFAF7F8
:10536000C9FF864B7B440D9A03EBC203D3E90023AC
:10537000FAF7C0FF0E9007910198FBF795FA059197
:10538000DDE9061382460E9A0498FAF7B3FF7C4AC9
:105390007A440D9B02EBC303D3E9002300930292EE
:1053A000FAF7A8FF5246059BFAF7A4FF00268846A5
:1053B00052463046059BFBF73EF8009B029AFBF7EE
:1053C0003AF8069B049AFBF736F8079B0E9AFBF710
:1053D00035F8024600200B46029038462946FBF776
:1053E00030F8824601912B4638461946029AFBF75F
:1053F00022F832464346FBF724F85246019BFAF75F
:1054000079FF07468A463246434629460298FBF70B
:1054100018F805460E463A465346FAF76BFF594AC6
:105420008846914221DBA8EB020353EA000210D127
:105430002A463346FAF7FFFFCDE90401524A534B9F
:1054400038465146FAF756FFDDE90423FBF73EFAEA
:1054500021D20220FCF7B4FFFCF792FF0A46214656
:1054600018B062F31E01BDE8F08D494B28F00042F0
:105470009A4210D3474A08EB020353EA00027FF432
:10548000C6AD2A463346FAF7D6FF3A465346FBF7EF
:105490001DFA7FF6BCAD0022019228F000403E4983
:1054A0003E4A01EB2051824223DA481C4FF480111E
:1054B00021FA00F040443A4AC0F30A517A44394B89
:1054C000A1F2FF31CB4020EA0303C0F3130040F404
:1054D0008010C1F11401C84012680190B8F1000FAA
:1054E000BCBF4042019028463146FAF7A4FF05466A
:1054F0000E462A46334638465146FAF7FBFE4FF031
:1055000000084246284B40460591FAF79AFFCDE93C
:105510000601264A264B40460599FAF792FF00916C
:1055200002902A46334640460599FAF784FF3A46E8
:105530005346FAF783FF1F4A1F4BFAF782FF009B7F
:10554000029AFAF7D7FE0746884602460B4635E030
:105550008E9803007AB60B00522C00000000F03F3A
:105560008A2C0000B82B00000000084009C7EE3F5D
:10557000FD033ADCF5015B14E02F3EBE902A0000EB
:10558000542A000000009040FE822B654715973C8E
:1055900000CC904000346F3F01FCFFFF0000E03F73
:1055A000A0290000FFFF0F00432EE63F396CA80C36
:1055B000615C20BEEF39FAFE422EE63FDDE90601CE
:1055C000FAF798FEDDE9062305460E46FAF733FFA3
:1055D0003A464346FAF732FF0F462A4633460090D2
:1055E00010461946FAF72DFF824602462E48884695
:1055F0000B4605217844FCF75DFE52464346FAF718
:1056000020FF2A463346FAF719FF80468A463B4672
:1056100028463146009AFAF714FF3B46009AFAF7FB
:1056200069FE0691009000224FF0804340465146AB
:10563000FAF701FF0F460C90424653462846314682
:10564000FAF7FFFE3B460C9AFAF76DFF069B009AAD
:10565000FAF7F1FE2A463346FAF7EDFE0022134B25
:10566000FAF7ECFE054601980E4601EB00510815CD
:10567000002810DC28463146019AFBF7FEF8FCF7BB
:1056800005FE042808BFFCF783FE28463146019A30
:10569000FBF7F3F805460B4618B02A465846214654
:1056A000BDE8F04DFAF7CDBE402800000000F03F05
:1056B00000B5024612B94FF0FF3000BD5068916846
:1056C000884201D10020F8E750689168884203D2EF
:1056D00090685168401AF0E7104600F014F85168DD
:1056E0009368C91A401AE8E730B5044614B94FF078
:1056F000FF3030BD204600F006F805462046FFF793
:10570000D7FF281AF5E7014611B94FF0FF3070476F
:105710000868FCE7014611B94FF0FF307047C868D0
:105720004860C86888600020F8E72DE9F041044629
:105730000F461646002514B9681EBDE8F08117B95A
:105740004FF0FF30F9E76068A168884214D2204624
:10575000FFF7AEFFB04201D9304602E02046FFF726
:10576000A7FF054661682A463846FAF7D7FC606805
:10577000284460602846E0E72046FFF7C4FF6168E0
:10578000E268891A401AB0420AD9354661682A4649
:105790003846FAF7C3FC6068284460602846CCE7C6
:1057A0002046FFF7B0FF6168E268891A451A616810
:1057B0002A463846FAF7B2FCE0686060721B791935
:1057C0002046FFF7B2FF05442846B6E72DE9F04131
:1057D00004460F461546002604B11FB94FF0FF30AE
:1057E000BDE8F0812046FFF77FFFA84202D86FF0A6
:1057F0000100F5E76068A16888422AD82046FFF7D3
:1058000082FFA168E268891A461AB54213D8A068D7
:105810002A463946FAF782FCA0682844A060204650
:10582000FFF771FFE1680844A168884201D1E06890
:10583000A0602846D4E7A06832463946FAF76EFCE5
:10584000E068A060AA1BB9192046FFF7BFFF3044EB
:10585000C6E7A0682A463946FAF760FCA0682844E3
:10586000A0602846BCE72DE9F04106460F46FBF74D
:1058700067F8041E0D4618BF0120284320F00040A1
:10588000C0F17F6000F1E040C00F0ED0301C18BFA7
:105890000120384320F00040C0F17F6000F1E0407B
:1058A000C00F04BF0120FCF78BFD20462946BDE850
:1058B000F081000070B505460E4600240DB9601E4B
:1058C00070BD00241BE0295D0F48FCF7C8FC00BF39
:1058D00040210D48FCF787FC0028F9D0022C0DD39D
:1058E000285DFF280AD155210748FCF7B8FC00BF06
:1058F00040210548FCF777FC0028F9D0641CB4422D
:10590000E1D33046DCE70000004400401648407810
:105910001649C1F8070014480078C1F80B00124876
:10592000008AC1F80F001048C088C1F81300104861
:10593000407908B1012000E000200C4948700C4873
:10594000007808B1012000E00020084908700848EC
:10595000007A08B1012000E0002004498870044862
:10596000807AC1F80300704754000020050500202C
:105970007A00002010B517210948FAF7E8FB00204B
:105980000749087048708870C1F80300C1F8070023
:10599000C1F80B00C1F80F00C1F8130010BD0000E2
:1059A000050500200000000000000000002F00009E
:1059B00000000700070000147F147F1400242A7FD2
:1059C0002A12006264081323003649552250000051
:1059D0000503000000001C224100000041221C00C1
:1059E0000014083E08140008083E0808000000A043
:1059F000600000080808080800006060000000203F
:105A000010080402003E5149453E0000427F40001C
:105A1000004261514946002141454B3100181412A2
:105A20007F10002745454539003C4A49493000016F
:105A30007109050300364949493600064949291EBE
:105A40000000363600000000563600000008142220
:105A50004100001414141414000041221408000220
:105A60000151090600324959513E007C1211127C45
:105A7000007F49494936003E41414122007F414172
:105A8000221C007F49494941007F09090901003E64
:105A90004149497A007F0808087F0000417F4100A2
:105AA000002040413F01007F08142241007F404018
:105AB0004040007F020C027F007F0408107F003E00
:105AC0004141413E007F09090906003E4151215EE6
:105AD000007F091929460046494949310001017FE3
